{
  "address": "0x4DfF53702bF96DbBA11DBB31F03C470f111d99a6",
  "abi": [
    {
      "inputs": [
        {
          "internalType": "address",
          "name": "initialOwner",
          "type": "address"
        }
      ],
      "stateMutability": "nonpayable",
      "type": "constructor"
    },
    {
      "inputs": [
        {
          "internalType": "address",
          "name": "sender",
          "type": "address"
        },
        {
          "internalType": "uint256",
          "name": "tokenId",
          "type": "uint256"
        },
        {
          "internalType": "address",
          "name": "owner",
          "type": "address"
        }
      ],
      "name": "ERC721IncorrectOwner",
      "type": "error"
    },
    {
      "inputs": [
        {
          "internalType": "address",
          "name": "operator",
          "type": "address"
        },
        {
          "internalType": "uint256",
          "name": "tokenId",
          "type": "uint256"
        }
      ],
      "name": "ERC721InsufficientApproval",
      "type": "error"
    },
    {
      "inputs": [
        {
          "internalType": "address",
          "name": "approver",
          "type": "address"
        }
      ],
      "name": "ERC721InvalidApprover",
      "type": "error"
    },
    {
      "inputs": [
        {
          "internalType": "address",
          "name": "operator",
          "type": "address"
        }
      ],
      "name": "ERC721InvalidOperator",
      "type": "error"
    },
    {
      "inputs": [
        {
          "internalType": "address",
          "name": "owner",
          "type": "address"
        }
      ],
      "name": "ERC721InvalidOwner",
      "type": "error"
    },
    {
      "inputs": [
        {
          "internalType": "address",
          "name": "receiver",
          "type": "address"
        }
      ],
      "name": "ERC721InvalidReceiver",
      "type": "error"
    },
    {
      "inputs": [
        {
          "internalType": "address",
          "name": "sender",
          "type": "address"
        }
      ],
      "name": "ERC721InvalidSender",
      "type": "error"
    },
    {
      "inputs": [
        {
          "internalType": "uint256",
          "name": "tokenId",
          "type": "uint256"
        }
      ],
      "name": "ERC721NonexistentToken",
      "type": "error"
    },
    {
      "inputs": [
        {
          "internalType": "address",
          "name": "owner",
          "type": "address"
        }
      ],
      "name": "OwnableInvalidOwner",
      "type": "error"
    },
    {
      "inputs": [
        {
          "internalType": "address",
          "name": "account",
          "type": "address"
        }
      ],
      "name": "OwnableUnauthorizedAccount",
      "type": "error"
    },
    {
      "anonymous": false,
      "inputs": [
        {
          "indexed": true,
          "internalType": "address",
          "name": "owner",
          "type": "address"
        },
        {
          "indexed": true,
          "internalType": "address",
          "name": "approved",
          "type": "address"
        },
        {
          "indexed": true,
          "internalType": "uint256",
          "name": "tokenId",
          "type": "uint256"
        }
      ],
      "name": "Approval",
      "type": "event"
    },
    {
      "anonymous": false,
      "inputs": [
        {
          "indexed": true,
          "internalType": "address",
          "name": "owner",
          "type": "address"
        },
        {
          "indexed": true,
          "internalType": "address",
          "name": "operator",
          "type": "address"
        },
        {
          "indexed": false,
          "internalType": "bool",
          "name": "approved",
          "type": "bool"
        }
      ],
      "name": "ApprovalForAll",
      "type": "event"
    },
    {
      "anonymous": false,
      "inputs": [
        {
          "indexed": false,
          "internalType": "uint256",
          "name": "_fromTokenId",
          "type": "uint256"
        },
        {
          "indexed": false,
          "internalType": "uint256",
          "name": "_toTokenId",
          "type": "uint256"
        }
      ],
      "name": "BatchMetadataUpdate",
      "type": "event"
    },
    {
      "anonymous": false,
      "inputs": [
        {
          "indexed": false,
          "internalType": "enum HogwartsTournament.HogwartsHouse",
          "name": "house",
          "type": "uint8"
        },
        {
          "indexed": false,
          "internalType": "uint256",
          "name": "newPoints",
          "type": "uint256"
        }
      ],
      "name": "HousePointsUpdated",
      "type": "event"
    },
    {
      "anonymous": false,
      "inputs": [
        {
          "indexed": false,
          "internalType": "uint256",
          "name": "_tokenId",
          "type": "uint256"
        }
      ],
      "name": "MetadataUpdate",
      "type": "event"
    },
    {
      "anonymous": false,
      "inputs": [
        {
          "indexed": true,
          "internalType": "address",
          "name": "minter",
          "type": "address"
        },
        {
          "indexed": false,
          "internalType": "uint256",
          "name": "tokenId",
          "type": "uint256"
        },
        {
          "indexed": false,
          "internalType": "string",
          "name": "tokenURI",
          "type": "string"
        },
        {
          "indexed": false,
          "internalType": "enum HogwartsTournament.HogwartsHouse",
          "name": "house",
          "type": "uint8"
        },
        {
          "indexed": false,
          "internalType": "string",
          "name": "name",
          "type": "string"
        }
      ],
      "name": "NFTMinted",
      "type": "event"
    },
    {
      "anonymous": false,
      "inputs": [
        {
          "indexed": true,
          "internalType": "address",
          "name": "previousOwner",
          "type": "address"
        },
        {
          "indexed": true,
          "internalType": "address",
          "name": "newOwner",
          "type": "address"
        }
      ],
      "name": "OwnershipTransferred",
      "type": "event"
    },
    {
      "anonymous": false,
      "inputs": [
        {
          "indexed": true,
          "internalType": "address",
          "name": "from",
          "type": "address"
        },
        {
          "indexed": true,
          "internalType": "address",
          "name": "to",
          "type": "address"
        },
        {
          "indexed": true,
          "internalType": "uint256",
          "name": "tokenId",
          "type": "uint256"
        }
      ],
      "name": "Transfer",
      "type": "event"
    },
    {
      "anonymous": false,
      "inputs": [
        {
          "indexed": false,
          "internalType": "uint256",
          "name": "tokenId",
          "type": "uint256"
        },
        {
          "indexed": false,
          "internalType": "uint256",
          "name": "reviverTokenId",
          "type": "uint256"
        }
      ],
      "name": "WizardRevived",
      "type": "event"
    },
    {
      "anonymous": false,
      "inputs": [
        {
          "indexed": false,
          "internalType": "uint256",
          "name": "tokenId",
          "type": "uint256"
        }
      ],
      "name": "WizardStunned",
      "type": "event"
    },
    {
      "inputs": [
        {
          "internalType": "address",
          "name": "to",
          "type": "address"
        },
        {
          "internalType": "uint256",
          "name": "tokenId",
          "type": "uint256"
        }
      ],
      "name": "approve",
      "outputs": [],
      "stateMutability": "nonpayable",
      "type": "function"
    },
    {
      "inputs": [
        {
          "internalType": "address",
          "name": "owner",
          "type": "address"
        }
      ],
      "name": "balanceOf",
      "outputs": [
        {
          "internalType": "uint256",
          "name": "",
          "type": "uint256"
        }
      ],
      "stateMutability": "view",
      "type": "function"
    },
    {
      "inputs": [
        {
          "internalType": "uint256",
          "name": "tokenId",
          "type": "uint256"
        }
      ],
      "name": "getApproved",
      "outputs": [
        {
          "internalType": "address",
          "name": "",
          "type": "address"
        }
      ],
      "stateMutability": "view",
      "type": "function"
    },
    {
      "inputs": [
        {
          "internalType": "enum HogwartsTournament.HogwartsHouse",
          "name": "house",
          "type": "uint8"
        }
      ],
      "name": "getHousePoints",
      "outputs": [
        {
          "internalType": "uint256",
          "name": "",
          "type": "uint256"
        }
      ],
      "stateMutability": "view",
      "type": "function"
    },
    {
      "inputs": [
        {
          "internalType": "uint256",
          "name": "tokenId",
          "type": "uint256"
        }
      ],
      "name": "getTokenHouse",
      "outputs": [
        {
          "internalType": "enum HogwartsTournament.HogwartsHouse",
          "name": "",
          "type": "uint8"
        }
      ],
      "stateMutability": "view",
      "type": "function"
    },
    {
      "inputs": [
        {
          "internalType": "uint256",
          "name": "tokenId",
          "type": "uint256"
        }
      ],
      "name": "getWizardName",
      "outputs": [
        {
          "internalType": "string",
          "name": "",
          "type": "string"
        }
      ],
      "stateMutability": "view",
      "type": "function"
    },
    {
      "inputs": [
        {
          "internalType": "enum HogwartsTournament.HogwartsHouse",
          "name": "",
          "type": "uint8"
        }
      ],
      "name": "housePoints",
      "outputs": [
        {
          "internalType": "uint256",
          "name": "",
          "type": "uint256"
        }
      ],
      "stateMutability": "view",
      "type": "function"
    },
    {
      "inputs": [
        {
          "internalType": "address",
          "name": "owner",
          "type": "address"
        },
        {
          "internalType": "address",
          "name": "operator",
          "type": "address"
        }
      ],
      "name": "isApprovedForAll",
      "outputs": [
        {
          "internalType": "bool",
          "name": "",
          "type": "bool"
        }
      ],
      "stateMutability": "view",
      "type": "function"
    },
    {
      "inputs": [
        {
          "internalType": "uint256",
          "name": "",
          "type": "uint256"
        }
      ],
      "name": "isStunned",
      "outputs": [
        {
          "internalType": "bool",
          "name": "",
          "type": "bool"
        }
      ],
      "stateMutability": "view",
      "type": "function"
    },
    {
      "inputs": [
        {
          "internalType": "enum HogwartsTournament.HogwartsHouse",
          "name": "house",
          "type": "uint8"
        },
        {
          "internalType": "uint256",
          "name": "points",
          "type": "uint256"
        },
        {
          "internalType": "bool",
          "name": "add",
          "type": "bool"
        }
      ],
      "name": "modifyHousePoints",
      "outputs": [],
      "stateMutability": "nonpayable",
      "type": "function"
    },
    {
      "inputs": [],
      "name": "name",
      "outputs": [
        {
          "internalType": "string",
          "name": "",
          "type": "string"
        }
      ],
      "stateMutability": "view",
      "type": "function"
    },
    {
      "inputs": [],
      "name": "owner",
      "outputs": [
        {
          "internalType": "address",
          "name": "",
          "type": "address"
        }
      ],
      "stateMutability": "view",
      "type": "function"
    },
    {
      "inputs": [
        {
          "internalType": "uint256",
          "name": "tokenId",
          "type": "uint256"
        }
      ],
      "name": "ownerOf",
      "outputs": [
        {
          "internalType": "address",
          "name": "",
          "type": "address"
        }
      ],
      "stateMutability": "view",
      "type": "function"
    },
    {
      "inputs": [
        {
          "internalType": "uint256",
          "name": "targetTokenId",
          "type": "uint256"
        }
      ],
      "name": "rennervate",
      "outputs": [],
      "stateMutability": "nonpayable",
      "type": "function"
    },
    {
      "inputs": [],
      "name": "renounceOwnership",
      "outputs": [],
      "stateMutability": "nonpayable",
      "type": "function"
    },
    {
      "inputs": [
        {
          "internalType": "enum HogwartsTournament.HogwartsHouse",
          "name": "house",
          "type": "uint8"
        },
        {
          "internalType": "string",
          "name": "wizardName",
          "type": "string"
        }
      ],
      "name": "safeMint",
      "outputs": [],
      "stateMutability": "nonpayable",
      "type": "function"
    },
    {
      "inputs": [
        {
          "internalType": "address",
          "name": "from",
          "type": "address"
        },
        {
          "internalType": "address",
          "name": "to",
          "type": "address"
        },
        {
          "internalType": "uint256",
          "name": "tokenId",
          "type": "uint256"
        }
      ],
      "name": "safeTransferFrom",
      "outputs": [],
      "stateMutability": "nonpayable",
      "type": "function"
    },
    {
      "inputs": [
        {
          "internalType": "address",
          "name": "from",
          "type": "address"
        },
        {
          "internalType": "address",
          "name": "to",
          "type": "address"
        },
        {
          "internalType": "uint256",
          "name": "tokenId",
          "type": "uint256"
        },
        {
          "internalType": "bytes",
          "name": "data",
          "type": "bytes"
        }
      ],
      "name": "safeTransferFrom",
      "outputs": [],
      "stateMutability": "nonpayable",
      "type": "function"
    },
    {
      "inputs": [
        {
          "internalType": "address",
          "name": "operator",
          "type": "address"
        },
        {
          "internalType": "bool",
          "name": "approved",
          "type": "bool"
        }
      ],
      "name": "setApprovalForAll",
      "outputs": [],
      "stateMutability": "nonpayable",
      "type": "function"
    },
    {
      "inputs": [
        {
          "internalType": "uint256",
          "name": "targetTokenId",
          "type": "uint256"
        }
      ],
      "name": "stupefy",
      "outputs": [],
      "stateMutability": "nonpayable",
      "type": "function"
    },
    {
      "inputs": [
        {
          "internalType": "bytes4",
          "name": "interfaceId",
          "type": "bytes4"
        }
      ],
      "name": "supportsInterface",
      "outputs": [
        {
          "internalType": "bool",
          "name": "",
          "type": "bool"
        }
      ],
      "stateMutability": "view",
      "type": "function"
    },
    {
      "inputs": [],
      "name": "symbol",
      "outputs": [
        {
          "internalType": "string",
          "name": "",
          "type": "string"
        }
      ],
      "stateMutability": "view",
      "type": "function"
    },
    {
      "inputs": [
        {
          "internalType": "uint256",
          "name": "",
          "type": "uint256"
        }
      ],
      "name": "tokenHouse",
      "outputs": [
        {
          "internalType": "enum HogwartsTournament.HogwartsHouse",
          "name": "",
          "type": "uint8"
        }
      ],
      "stateMutability": "view",
      "type": "function"
    },
    {
      "inputs": [
        {
          "internalType": "uint256",
          "name": "tokenId",
          "type": "uint256"
        }
      ],
      "name": "tokenURI",
      "outputs": [
        {
          "internalType": "string",
          "name": "",
          "type": "string"
        }
      ],
      "stateMutability": "view",
      "type": "function"
    },
    {
      "inputs": [
        {
          "internalType": "address",
          "name": "from",
          "type": "address"
        },
        {
          "internalType": "address",
          "name": "to",
          "type": "address"
        },
        {
          "internalType": "uint256",
          "name": "tokenId",
          "type": "uint256"
        }
      ],
      "name": "transferFrom",
      "outputs": [],
      "stateMutability": "nonpayable",
      "type": "function"
    },
    {
      "inputs": [
        {
          "internalType": "address",
          "name": "newOwner",
          "type": "address"
        }
      ],
      "name": "transferOwnership",
      "outputs": [],
      "stateMutability": "nonpayable",
      "type": "function"
    },
    {
      "inputs": [
        {
          "internalType": "uint256",
          "name": "",
          "type": "uint256"
        }
      ],
      "name": "wizardNames",
      "outputs": [
        {
          "internalType": "string",
          "name": "",
          "type": "string"
        }
      ],
      "stateMutability": "view",
      "type": "function"
    }
  ],
  "transactionHash": "0xcb67d8e917b53fa724be9c0fd1b5cc072a03ad9b85135bcf6988aa0b5593efce",
  "args": [
    "0xBb5E56052a2eaa1E7eaA3e9B8099374AEd4927e5"
  ],
  "numDeployments": 1,
  "solcInputHash": "7680fc22d61abbdf4129e211b0453af7",
  "bytecode": "0x60806040523480156200001157600080fd5b50604051620027e2380380620027e2833981016040819052620000349162000128565b806040518060400160405280600681526020016515da5e985c9960d21b8152506040518060400160405280600481526020016315d6949160e21b8152508160009081620000829190620001ff565b506001620000918282620001ff565b5050506001600160a01b038116620000c357604051631e4fbdf760e01b81526000600482015260240160405180910390fd5b620000ce81620000d6565b5050620002cb565b600780546001600160a01b038381166001600160a01b0319831681179093556040519116919082907f8be0079c531659141344cd1fd0a4f28419497f9722a3daafe3b4186f6b6457e090600090a35050565b6000602082840312156200013b57600080fd5b81516001600160a01b03811681146200015357600080fd5b9392505050565b634e487b7160e01b600052604160045260246000fd5b600181811c908216806200018557607f821691505b602082108103620001a657634e487b7160e01b600052602260045260246000fd5b50919050565b601f821115620001fa57600081815260208120601f850160051c81016020861015620001d55750805b601f850160051c820191505b81811015620001f657828155600101620001e1565b5050505b505050565b81516001600160401b038111156200021b576200021b6200015a565b62000233816200022c845462000170565b84620001ac565b602080601f8311600181146200026b5760008415620002525750858301515b600019600386901b1c1916600185901b178555620001f6565b600085815260208120601f198616915b828110156200029c578886015182559484019460019091019084016200027b565b5085821015620002bb5787850151600019600388901b60f8161c191681555b5050505050600190811b01905550565b61250780620002db6000396000f3fe608060405234801561001057600080fd5b50600436106101a95760003560e01c80636352211e116100f9578063aa7bb7ed11610097578063c87b56dd11610071578063c87b56dd146103c4578063e985e9c5146103d7578063f2fde38b146103ea578063faff8bbf146103fd57600080fd5b8063aa7bb7ed1461038b578063b88d4fde1461039e578063bf399691146103b157600080fd5b80638da5cb5b116100d35780638da5cb5b1461033c57806395d89b411461034d578063a22cb46514610355578063a52bffa81461036857600080fd5b80636352211e1461030e57806370a0823114610321578063715018a61461033457600080fd5b806323b872dd116101665780634237da99116101405780634237da99146102a557806342842e0e146102c85780635373a352146102db57806363249ebf146102ee57600080fd5b806323b872dd1461025f5780633133dbac14610272578063418a85fe1461029257600080fd5b806301ffc9a7146101ae57806306fdde03146101d6578063081812fc146101eb578063095ea7b3146102165780630ad7c0b51461022b5780630b0c09b31461024c575b600080fd5b6101c16101bc366004611e74565b610410565b60405190151581526020015b60405180910390f35b6101de610421565b6040516101cd9190611ee1565b6101fe6101f9366004611ef4565b6104b3565b6040516001600160a01b0390911681526020016101cd565b610229610224366004611f29565b6104dc565b005b61023e610239366004611f62565b6104eb565b6040519081526020016101cd565b61022961025a366004611f8d565b61052a565b61022961026d366004611fc9565b6106cf565b610285610280366004611ef4565b61075a565b6040516101cd919061203d565b6102296102a03660046120d7565b6107cb565b6101c16102b3366004611ef4565b600c6020526000908152604090205460ff1681565b6102296102d6366004611fc9565b610bd9565b6102296102e9366004611ef4565b610bf9565b61023e6102fc366004611f62565b600b6020526000908152604090205481565b6101fe61031c366004611ef4565b610f14565b61023e61032f366004612139565b610f1f565b610229610f67565b6007546001600160a01b03166101fe565b6101de610f7b565b610229610363366004612154565b610f8a565b610285610376366004611ef4565b600a6020526000908152604090205460ff1681565b6101de610399366004611ef4565b610f95565b6102296103ac366004612187565b611091565b6102296103bf366004611ef4565b6110a8565b6101de6103d2366004611ef4565b6113ae565b6101c16103e5366004612203565b6113b9565b6102296103f8366004612139565b6113e7565b6101de61040b366004611ef4565b611425565b600061041b826114bf565b92915050565b6060600080546104309061222d565b80601f016020809104026020016040519081016040528092919081815260200182805461045c9061222d565b80156104a95780601f1061047e576101008083540402835291602001916104a9565b820191906000526020600020905b81548152906001019060200180831161048c57829003601f168201915b5050505050905090565b60006104be826114e4565b506000828152600460205260409020546001600160a01b031661041b565b6104e782823361151d565b5050565b6000600b600083600381111561050357610503612005565b600381111561051457610514612005565b8152602001908152602001600020549050919050565b61053261152a565b80156105885781600b600085600381111561054f5761054f612005565b600381111561056057610560612005565b8152602001908152602001600020600082825461057d919061227d565b9091555061066e9050565b81600b600085600381111561059f5761059f612005565b60038111156105b0576105b0612005565b81526020019081526020016000205410156106235760405162461bcd60e51b815260206004820152602860248201527f43616e6e6f7420646564756374206d6f726520706f696e7473207468616e20616044820152677661696c61626c6560c01b60648201526084015b60405180910390fd5b81600b600085600381111561063a5761063a612005565b600381111561064b5761064b612005565b815260200190815260200160002060008282546106689190612290565b90915550505b6000805160206124b283398151915283600b600086600381111561069457610694612005565b60038111156106a5576106a5612005565b8152602001908152602001600020546040516106c29291906122a3565b60405180910390a1505050565b6001600160a01b0382166106f957604051633250574960e11b81526000600482015260240161061a565b6000610706838333611557565b9050836001600160a01b0316816001600160a01b031614610754576040516364283d7b60e01b81526001600160a01b038086166004830152602482018490528216604482015260640161061a565b50505050565b6000818152600260205260408120546001600160a01b03166107b55760405162461bcd60e51b8152602060048201526014602482015273151bdad95b88191bd95cc81b9bdd08195e1a5cdd60621b604482015260640161061a565b506000908152600a602052604090205460ff1690565b3360009081526009602052604090205460ff16156108355760405162461bcd60e51b815260206004820152602160248201527f416464726573732068617320616c7265616479206d696e74656420616e204e466044820152601560fa1b606482015260840161061a565b600382600381111561084957610849612005565b60ff16111561089a5760405162461bcd60e51b815260206004820152601760248201527f496e76616c696420686f7573652073656c656374696f6e000000000000000000604482015260640161061a565b60008151116108eb5760405162461bcd60e51b815260206004820152601b60248201527f57697a617264206e616d652063616e6e6f7420626520656d7074790000000000604482015260640161061a565b6028815111156109345760405162461bcd60e51b815260206004820152601460248201527357697a617264206e616d6520746f6f206c6f6e6760601b604482015260640161061a565b6008805460009182610945836122be565b9190505590506109553382611650565b6060600084600381111561096b5761096b612005565b036109aa575060408051808201909152601781527f697066733a2f2f516d4772796666696e646f72486173680000000000000000006020820152610a78565b60018460038111156109be576109be612005565b036109fd575060408051808201909152601781527f697066733a2f2f516d487566666c6570756666486173680000000000000000006020820152610a78565b6002846003811115610a1157610a11612005565b03610a4957506040805180820190915260168152750d2e0cce6745e5ea2daa4c2eccadcc6d8c2ee90c2e6d60531b6020820152610a78565b506040805180820190915260168152750d2e0cce6745e5ea2daa6d8f2e8d0cae4d2dc90c2e6d60531b60208201525b610a82828261166a565b6000828152600a60205260409020805485919060ff19166001836003811115610aad57610aad612005565b02179055506000828152600d60205260409020610aca8482612325565b50336000908152600960205260408120805460ff19166001179055600390600b908683811115610afc57610afc612005565b6003811115610b0d57610b0d612005565b81526020019081526020016000206000828254610b2a919061227d565b909155506000805160206124b2833981519152905084600b6000826003811115610b5657610b56612005565b6003811115610b6757610b67612005565b815260200190815260200160002054604051610b849291906122a3565b60405180910390a1336001600160a01b03167fa87dd51031a6f7041187c1c379ce1ddabe19d6e56f4601168b5e4f3377f24e6383838787604051610bcb94939291906123e5565b60405180910390a250505050565b610bf483838360405180602001604052806000815250611091565b505050565b6000610c0433610f1f565b11610c5f5760405162461bcd60e51b815260206004820152602560248201527f4d757374206f776e20612077697a617264204e465420746f2063617374205374604482015264757065667960d81b606482015260840161061a565b600854600090815b81811015610ca15733610c7982610f14565b6001600160a01b031603610c8f57809250610ca1565b80610c99816122be565b915050610c67565b506000838152600260205260409020546001600160a01b0316610d065760405162461bcd60e51b815260206004820152601c60248201527f5461726765742077697a61726420646f6573206e6f7420657869737400000000604482015260640161061a565b6000838152600c602052604090205460ff1615610d655760405162461bcd60e51b815260206004820152601960248201527f57697a61726420697320616c7265616479207374756e6e656400000000000000604482015260640161061a565b6000838152600a602052604090205460ff166003811115610d8857610d88612005565b6000838152600a602052604090205460ff166003811115610dab57610dab612005565b03610e085760405162461bcd60e51b815260206004820152602760248201527f43616e6e6f74207374756e2077697a617264732066726f6d20796f7572206f776044820152666e20686f75736560c81b606482015260840161061a565b6000838152600c60209081526040808320805460ff19166001179055848352600a90915281205460ff1690600590600b90836003811115610e4b57610e4b612005565b6003811115610e5c57610e5c612005565b81526020019081526020016000206000828254610e79919061227d565b909155506000805160206124b2833981519152905081600b6000826003811115610ea557610ea5612005565b6003811115610eb657610eb6612005565b815260200190815260200160002054604051610ed39291906122a3565b60405180910390a16040518481527fdbf026cdd2b0597d2aeb09aa7a211bc4c8639787a86a7efebd72dd17c5ed06d09060200160405180910390a150505050565b600061041b826114e4565b60006001600160a01b038216610f4b576040516322718ad960e21b81526000600482015260240161061a565b506001600160a01b031660009081526003602052604090205490565b610f6f61152a565b610f7960006116ba565b565b6060600180546104309061222d565b6104e733838361170c565b6000818152600260205260409020546060906001600160a01b0316610ff35760405162461bcd60e51b8152602060048201526014602482015273151bdad95b88191bd95cc81b9bdd08195e1a5cdd60621b604482015260640161061a565b6000828152600d60205260409020805461100c9061222d565b80601f01602080910402602001604051908101604052809291908181526020018280546110389061222d565b80156110855780601f1061105a57610100808354040283529160200191611085565b820191906000526020600020905b81548152906001019060200180831161106857829003601f168201915b50505050509050919050565b61109c8484846106cf565b610754848484846117ab565b6000818152600260205260409020546001600160a01b031661110c5760405162461bcd60e51b815260206004820152601c60248201527f5461726765742077697a61726420646f6573206e6f7420657869737400000000604482015260640161061a565b6000818152600c602052604090205460ff1661116a5760405162461bcd60e51b815260206004820152601c60248201527f5461726765742077697a617264206973206e6f74207374756e6e656400000000604482015260640161061a565b6008546000908190815b818110156111b2573361118682610f14565b6001600160a01b0316036111a057809350600192506111b2565b806111aa816122be565b915050611174565b50816112115760405162461bcd60e51b815260206004820152602860248201527f4d757374206f776e20612077697a617264204e465420746f20636173742052656044820152676e6e65727661746560c01b606482015260840161061a565b6000838152600a60205260408082205486835291205460ff918216911680600381111561124057611240612005565b82600381111561125257611252612005565b146112af5760405162461bcd60e51b815260206004820152602760248201527f43616e206f6e6c79207265766976652077697a617264732066726f6d20796f756044820152667220686f75736560c81b606482015260840161061a565b6000868152600c60205260408120805460ff19169055600590600b908460038111156112dd576112dd612005565b60038111156112ee576112ee612005565b8152602001908152602001600020600082825461130b919061227d565b909155506000805160206124b2833981519152905082600b600082600381111561133757611337612005565b600381111561134857611348612005565b8152602001908152602001600020546040516113659291906122a3565b60405180910390a160408051878152602081018790527fdc4f7a0353a3c734793792dc48b5bcee28ba44d52e270b0554b7e08f3327ec4c910160405180910390a1505050505050565b606061041b826118d4565b6001600160a01b03918216600090815260056020908152604080832093909416825291909152205460ff1690565b6113ef61152a565b6001600160a01b03811661141957604051631e4fbdf760e01b81526000600482015260240161061a565b611422816116ba565b50565b600d602052600090815260409020805461143e9061222d565b80601f016020809104026020016040519081016040528092919081815260200182805461146a9061222d565b80156114b75780601f1061148c576101008083540402835291602001916114b7565b820191906000526020600020905b81548152906001019060200180831161149a57829003601f168201915b505050505081565b60006001600160e01b03198216632483248360e11b148061041b575061041b826119e5565b6000818152600260205260408120546001600160a01b03168061041b57604051637e27328960e01b81526004810184905260240161061a565b610bf48383836001611a35565b6007546001600160a01b03163314610f795760405163118cdaa760e01b815233600482015260240161061a565b6000828152600260205260408120546001600160a01b039081169083161561158457611584818486611b3b565b6001600160a01b038116156115c2576115a1600085600080611a35565b6001600160a01b038116600090815260036020526040902080546000190190555b6001600160a01b038516156115f1576001600160a01b0385166000908152600360205260409020805460010190555b60008481526002602052604080822080546001600160a01b0319166001600160a01b0389811691821790925591518793918516917fddf252ad1be2c89b69c2b068fc378daa952ba7f163c4a11628f55a4df523b3ef91a4949350505050565b6104e7828260405180602001604052806000815250611b9f565b60008281526006602052604090206116828282612325565b506040518281527ff8e1a15aba9398e019f0b49df1a4fde98ee17ae345cb5f6b5e2c27f5033e8ce79060200160405180910390a15050565b600780546001600160a01b038381166001600160a01b0319831681179093556040519116919082907f8be0079c531659141344cd1fd0a4f28419497f9722a3daafe3b4186f6b6457e090600090a35050565b6001600160a01b03821661173e57604051630b61174360e31b81526001600160a01b038316600482015260240161061a565b6001600160a01b03838116600081815260056020908152604080832094871680845294825291829020805460ff191686151590811790915591519182527f17307eab39ab6107e8899845ad3d59bd9653f200f220920489ca2b5937696c31910160405180910390a3505050565b6001600160a01b0383163b1561075457604051630a85bd0160e11b81526001600160a01b0384169063150b7a02906117ed903390889087908790600401612428565b6020604051808303816000875af1925050508015611828575060408051601f3d908101601f1916820190925261182591810190612465565b60015b611891573d808015611856576040519150601f19603f3d011682016040523d82523d6000602084013e61185b565b606091505b50805160000361188957604051633250574960e11b81526001600160a01b038516600482015260240161061a565b805181602001fd5b6001600160e01b03198116630a85bd0160e11b146118cd57604051633250574960e11b81526001600160a01b038516600482015260240161061a565b5050505050565b60606118df826114e4565b50600082815260066020526040812080546118f99061222d565b80601f01602080910402602001604051908101604052809291908181526020018280546119259061222d565b80156119725780601f1061194757610100808354040283529160200191611972565b820191906000526020600020905b81548152906001019060200180831161195557829003601f168201915b50505050509050600061199060408051602081019091526000815290565b905080516000036119a2575092915050565b8151156119d45780826040516020016119bc929190612482565b60405160208183030381529060405292505050919050565b6119dd84611bb6565b949350505050565b60006001600160e01b031982166380ac58cd60e01b1480611a1657506001600160e01b03198216635b5e139f60e01b145b8061041b57506301ffc9a760e01b6001600160e01b031983161461041b565b8080611a4957506001600160a01b03821615155b15611b0b576000611a59846114e4565b90506001600160a01b03831615801590611a855750826001600160a01b0316816001600160a01b031614155b8015611a985750611a9681846113b9565b155b15611ac15760405163a9fbf51f60e01b81526001600160a01b038416600482015260240161061a565b8115611b095783856001600160a01b0316826001600160a01b03167f8c5be1e5ebec7d5bd14f71427d1e84f3dd0314c0f7b2291e5b200ac8c7c3b92560405160405180910390a45b505b5050600090815260046020526040902080546001600160a01b0319166001600160a01b0392909216919091179055565b611b46838383611c2b565b610bf4576001600160a01b038316611b7457604051637e27328960e01b81526004810182905260240161061a565b60405163177e802f60e01b81526001600160a01b03831660048201526024810182905260440161061a565b611ba98383611c8e565b610bf460008484846117ab565b6060611bc1826114e4565b506000611bd960408051602081019091526000815290565b90506000815111611bf95760405180602001604052806000815250611c24565b80611c0384611cf3565b604051602001611c14929190612482565b6040516020818303038152906040525b9392505050565b60006001600160a01b038316158015906119dd5750826001600160a01b0316846001600160a01b03161480611c655750611c6584846113b9565b806119dd5750506000908152600460205260409020546001600160a01b03908116911614919050565b6001600160a01b038216611cb857604051633250574960e11b81526000600482015260240161061a565b6000611cc683836000611557565b90506001600160a01b03811615610bf4576040516339e3563760e11b81526000600482015260240161061a565b60606000611d0083611d86565b600101905060008167ffffffffffffffff811115611d2057611d2061204b565b6040519080825280601f01601f191660200182016040528015611d4a576020820181803683370190505b5090508181016020015b600019016f181899199a1a9b1b9c1cb0b131b232b360811b600a86061a8153600a8504945084611d5457509392505050565b60008072184f03e93ff9f4daa797ed6e38ed64bf6a1f0160401b8310611dc55772184f03e93ff9f4daa797ed6e38ed64bf6a1f0160401b830492506040015b6d04ee2d6d415b85acef81000000008310611df1576d04ee2d6d415b85acef8100000000830492506020015b662386f26fc100008310611e0f57662386f26fc10000830492506010015b6305f5e1008310611e27576305f5e100830492506008015b6127108310611e3b57612710830492506004015b60648310611e4d576064830492506002015b600a831061041b5760010192915050565b6001600160e01b03198116811461142257600080fd5b600060208284031215611e8657600080fd5b8135611c2481611e5e565b60005b83811015611eac578181015183820152602001611e94565b50506000910152565b60008151808452611ecd816020860160208601611e91565b601f01601f19169290920160200192915050565b602081526000611c246020830184611eb5565b600060208284031215611f0657600080fd5b5035919050565b80356001600160a01b0381168114611f2457600080fd5b919050565b60008060408385031215611f3c57600080fd5b611f4583611f0d565b946020939093013593505050565b803560048110611f2457600080fd5b600060208284031215611f7457600080fd5b611c2482611f53565b80358015158114611f2457600080fd5b600080600060608486031215611fa257600080fd5b611fab84611f53565b925060208401359150611fc060408501611f7d565b90509250925092565b600080600060608486031215611fde57600080fd5b611fe784611f0d565b9250611ff560208501611f0d565b9150604084013590509250925092565b634e487b7160e01b600052602160045260246000fd5b6004811061203957634e487b7160e01b600052602160045260246000fd5b9052565b6020810161041b828461201b565b634e487b7160e01b600052604160045260246000fd5b600067ffffffffffffffff8084111561207c5761207c61204b565b604051601f8501601f19908116603f011681019082821181831017156120a4576120a461204b565b816040528093508581528686860111156120bd57600080fd5b858560208301376000602087830101525050509392505050565b600080604083850312156120ea57600080fd5b6120f383611f53565b9150602083013567ffffffffffffffff81111561210f57600080fd5b8301601f8101851361212057600080fd5b61212f85823560208401612061565b9150509250929050565b60006020828403121561214b57600080fd5b611c2482611f0d565b6000806040838503121561216757600080fd5b61217083611f0d565b915061217e60208401611f7d565b90509250929050565b6000806000806080858703121561219d57600080fd5b6121a685611f0d565b93506121b460208601611f0d565b925060408501359150606085013567ffffffffffffffff8111156121d757600080fd5b8501601f810187136121e857600080fd5b6121f787823560208401612061565b91505092959194509250565b6000806040838503121561221657600080fd5b61221f83611f0d565b915061217e60208401611f0d565b600181811c9082168061224157607f821691505b60208210810361226157634e487b7160e01b600052602260045260246000fd5b50919050565b634e487b7160e01b600052601160045260246000fd5b8082018082111561041b5761041b612267565b8181038181111561041b5761041b612267565b604081016122b1828561201b565b8260208301529392505050565b6000600182016122d0576122d0612267565b5060010190565b601f821115610bf457600081815260208120601f850160051c810160208610156122fe5750805b601f850160051c820191505b8181101561231d5782815560010161230a565b505050505050565b815167ffffffffffffffff81111561233f5761233f61204b565b6123538161234d845461222d565b846122d7565b602080601f83116001811461238857600084156123705750858301515b600019600386901b1c1916600185901b17855561231d565b600085815260208120601f198616915b828110156123b757888601518255948401946001909101908401612398565b50858210156123d55787850151600019600388901b60f8161c191681555b5050505050600190811b01905550565b8481526080602082015260006123fe6080830186611eb5565b61240b604084018661201b565b828103606084015261241d8185611eb5565b979650505050505050565b6001600160a01b038581168252841660208201526040810183905260806060820181905260009061245b90830184611eb5565b9695505050505050565b60006020828403121561247757600080fd5b8151611c2481611e5e565b60008351612494818460208801611e91565b8351908301906124a8818360208801611e91565b0194935050505056fe18777285f2d154fa154101f7df8a5ddfcd4b93f0b1a37e1c90e4bdd2d3854fdaa26469706673582212206492e301eaaba19a6af0e2ad167fde3370912930d763e9fa5d963dc5b99443b764736f6c63430008140033",
  "devdoc": {
    "errors": {
      "ERC721IncorrectOwner(address,uint256,address)": [
        {
          "details": "Indicates an error related to the ownership over a particular token. Used in transfers.",
          "params": {
            "owner": "Address of the current owner of a token.",
            "sender": "Address whose tokens are being transferred.",
            "tokenId": "Identifier number of a token."
          }
        }
      ],
      "ERC721InsufficientApproval(address,uint256)": [
        {
          "details": "Indicates a failure with the `operator`s approval. Used in transfers.",
          "params": {
            "operator": "Address that may be allowed to operate on tokens without being their owner.",
            "tokenId": "Identifier number of a token."
          }
        }
      ],
      "ERC721InvalidApprover(address)": [
        {
          "details": "Indicates a failure with the `approver` of a token to be approved. Used in approvals.",
          "params": {
            "approver": "Address initiating an approval operation."
          }
        }
      ],
      "ERC721InvalidOperator(address)": [
        {
          "details": "Indicates a failure with the `operator` to be approved. Used in approvals.",
          "params": {
            "operator": "Address that may be allowed to operate on tokens without being their owner."
          }
        }
      ],
      "ERC721InvalidOwner(address)": [
        {
          "details": "Indicates that an address can't be an owner. For example, `address(0)` is a forbidden owner in EIP-20. Used in balance queries.",
          "params": {
            "owner": "Address of the current owner of a token."
          }
        }
      ],
      "ERC721InvalidReceiver(address)": [
        {
          "details": "Indicates a failure with the token `receiver`. Used in transfers.",
          "params": {
            "receiver": "Address to which tokens are being transferred."
          }
        }
      ],
      "ERC721InvalidSender(address)": [
        {
          "details": "Indicates a failure with the token `sender`. Used in transfers.",
          "params": {
            "sender": "Address whose tokens are being transferred."
          }
        }
      ],
      "ERC721NonexistentToken(uint256)": [
        {
          "details": "Indicates a `tokenId` whose `owner` is the zero address.",
          "params": {
            "tokenId": "Identifier number of a token."
          }
        }
      ],
      "OwnableInvalidOwner(address)": [
        {
          "details": "The owner is not a valid owner account. (eg. `address(0)`)"
        }
      ],
      "OwnableUnauthorizedAccount(address)": [
        {
          "details": "The caller account is not authorized to perform an operation."
        }
      ]
    },
    "events": {
      "Approval(address,address,uint256)": {
        "details": "Emitted when `owner` enables `approved` to manage the `tokenId` token."
      },
      "ApprovalForAll(address,address,bool)": {
        "details": "Emitted when `owner` enables or disables (`approved`) `operator` to manage all of its assets."
      },
      "BatchMetadataUpdate(uint256,uint256)": {
        "details": "This event emits when the metadata of a range of tokens is changed. So that the third-party platforms such as NFT market could timely update the images and related attributes of the NFTs."
      },
      "MetadataUpdate(uint256)": {
        "details": "This event emits when the metadata of a token is changed. So that the third-party platforms such as NFT market could timely update the images and related attributes of the NFT."
      },
      "Transfer(address,address,uint256)": {
        "details": "Emitted when `tokenId` token is transferred from `from` to `to`."
      }
    },
    "kind": "dev",
    "methods": {
      "approve(address,uint256)": {
        "details": "See {IERC721-approve}."
      },
      "balanceOf(address)": {
        "details": "See {IERC721-balanceOf}."
      },
      "getApproved(uint256)": {
        "details": "See {IERC721-getApproved}."
      },
      "isApprovedForAll(address,address)": {
        "details": "See {IERC721-isApprovedForAll}."
      },
      "name()": {
        "details": "See {IERC721Metadata-name}."
      },
      "owner()": {
        "details": "Returns the address of the current owner."
      },
      "ownerOf(uint256)": {
        "details": "See {IERC721-ownerOf}."
      },
      "renounceOwnership()": {
        "details": "Leaves the contract without owner. It will not be possible to call `onlyOwner` functions. Can only be called by the current owner. NOTE: Renouncing ownership will leave the contract without an owner, thereby disabling any functionality that is only available to the owner."
      },
      "safeTransferFrom(address,address,uint256)": {
        "details": "See {IERC721-safeTransferFrom}."
      },
      "safeTransferFrom(address,address,uint256,bytes)": {
        "details": "See {IERC721-safeTransferFrom}."
      },
      "setApprovalForAll(address,bool)": {
        "details": "See {IERC721-setApprovalForAll}."
      },
      "symbol()": {
        "details": "See {IERC721Metadata-symbol}."
      },
      "transferFrom(address,address,uint256)": {
        "details": "See {IERC721-transferFrom}."
      },
      "transferOwnership(address)": {
        "details": "Transfers ownership of the contract to a new account (`newOwner`). Can only be called by the current owner."
      }
    },
    "version": 1
  },
  "userdoc": {
    "kind": "user",
    "methods": {},
    "version": 1
  },
  "storageLayout": {
    "storage": [
      {
        "astId": 349,
        "contract": "contracts/HogwartsTournament.sol:HogwartsTournament",
        "label": "_name",
        "offset": 0,
        "slot": "0",
        "type": "t_string_storage"
      },
      {
        "astId": 351,
        "contract": "contracts/HogwartsTournament.sol:HogwartsTournament",
        "label": "_symbol",
        "offset": 0,
        "slot": "1",
        "type": "t_string_storage"
      },
      {
        "astId": 355,
        "contract": "contracts/HogwartsTournament.sol:HogwartsTournament",
        "label": "_owners",
        "offset": 0,
        "slot": "2",
        "type": "t_mapping(t_uint256,t_address)"
      },
      {
        "astId": 359,
        "contract": "contracts/HogwartsTournament.sol:HogwartsTournament",
        "label": "_balances",
        "offset": 0,
        "slot": "3",
        "type": "t_mapping(t_address,t_uint256)"
      },
      {
        "astId": 363,
        "contract": "contracts/HogwartsTournament.sol:HogwartsTournament",
        "label": "_tokenApprovals",
        "offset": 0,
        "slot": "4",
        "type": "t_mapping(t_uint256,t_address)"
      },
      {
        "astId": 369,
        "contract": "contracts/HogwartsTournament.sol:HogwartsTournament",
        "label": "_operatorApprovals",
        "offset": 0,
        "slot": "5",
        "type": "t_mapping(t_address,t_mapping(t_address,t_bool))"
      },
      {
        "astId": 1488,
        "contract": "contracts/HogwartsTournament.sol:HogwartsTournament",
        "label": "_tokenURIs",
        "offset": 0,
        "slot": "6",
        "type": "t_mapping(t_uint256,t_string_storage)"
      },
      {
        "astId": 8,
        "contract": "contracts/HogwartsTournament.sol:HogwartsTournament",
        "label": "_owner",
        "offset": 0,
        "slot": "7",
        "type": "t_address"
      },
      {
        "astId": 3108,
        "contract": "contracts/HogwartsTournament.sol:HogwartsTournament",
        "label": "_nextTokenId",
        "offset": 0,
        "slot": "8",
        "type": "t_uint256"
      },
      {
        "astId": 3117,
        "contract": "contracts/HogwartsTournament.sol:HogwartsTournament",
        "label": "_hasMinted",
        "offset": 0,
        "slot": "9",
        "type": "t_mapping(t_address,t_bool)"
      },
      {
        "astId": 3122,
        "contract": "contracts/HogwartsTournament.sol:HogwartsTournament",
        "label": "tokenHouse",
        "offset": 0,
        "slot": "10",
        "type": "t_mapping(t_uint256,t_enum(HogwartsHouse)3113)"
      },
      {
        "astId": 3127,
        "contract": "contracts/HogwartsTournament.sol:HogwartsTournament",
        "label": "housePoints",
        "offset": 0,
        "slot": "11",
        "type": "t_mapping(t_enum(HogwartsHouse)3113,t_uint256)"
      },
      {
        "astId": 3131,
        "contract": "contracts/HogwartsTournament.sol:HogwartsTournament",
        "label": "isStunned",
        "offset": 0,
        "slot": "12",
        "type": "t_mapping(t_uint256,t_bool)"
      },
      {
        "astId": 3135,
        "contract": "contracts/HogwartsTournament.sol:HogwartsTournament",
        "label": "wizardNames",
        "offset": 0,
        "slot": "13",
        "type": "t_mapping(t_uint256,t_string_storage)"
      }
    ],
    "types": {
      "t_address": {
        "encoding": "inplace",
        "label": "address",
        "numberOfBytes": "20"
      },
      "t_bool": {
        "encoding": "inplace",
        "label": "bool",
        "numberOfBytes": "1"
      },
      "t_enum(HogwartsHouse)3113": {
        "encoding": "inplace",
        "label": "enum HogwartsTournament.HogwartsHouse",
        "numberOfBytes": "1"
      },
      "t_mapping(t_address,t_bool)": {
        "encoding": "mapping",
        "key": "t_address",
        "label": "mapping(address => bool)",
        "numberOfBytes": "32",
        "value": "t_bool"
      },
      "t_mapping(t_address,t_mapping(t_address,t_bool))": {
        "encoding": "mapping",
        "key": "t_address",
        "label": "mapping(address => mapping(address => bool))",
        "numberOfBytes": "32",
        "value": "t_mapping(t_address,t_bool)"
      },
      "t_mapping(t_address,t_uint256)": {
        "encoding": "mapping",
        "key": "t_address",
        "label": "mapping(address => uint256)",
        "numberOfBytes": "32",
        "value": "t_uint256"
      },
      "t_mapping(t_enum(HogwartsHouse)3113,t_uint256)": {
        "encoding": "mapping",
        "key": "t_enum(HogwartsHouse)3113",
        "label": "mapping(enum HogwartsTournament.HogwartsHouse => uint256)",
        "numberOfBytes": "32",
        "value": "t_uint256"
      },
      "t_mapping(t_uint256,t_address)": {
        "encoding": "mapping",
        "key": "t_uint256",
        "label": "mapping(uint256 => address)",
        "numberOfBytes": "32",
        "value": "t_address"
      },
      "t_mapping(t_uint256,t_bool)": {
        "encoding": "mapping",
        "key": "t_uint256",
        "label": "mapping(uint256 => bool)",
        "numberOfBytes": "32",
        "value": "t_bool"
      },
      "t_mapping(t_uint256,t_enum(HogwartsHouse)3113)": {
        "encoding": "mapping",
        "key": "t_uint256",
        "label": "mapping(uint256 => enum HogwartsTournament.HogwartsHouse)",
        "numberOfBytes": "32",
        "value": "t_enum(HogwartsHouse)3113"
      },
      "t_mapping(t_uint256,t_string_storage)": {
        "encoding": "mapping",
        "key": "t_uint256",
        "label": "mapping(uint256 => string)",
        "numberOfBytes": "32",
        "value": "t_string_storage"
      },
      "t_string_storage": {
        "encoding": "bytes",
        "label": "string",
        "numberOfBytes": "32"
      },
      "t_uint256": {
        "encoding": "inplace",
        "label": "uint256",
        "numberOfBytes": "32"
      }
    }
  }
}