{
  "address": "0x2a339C0Bd30bbF50bd3a1c44d9AC44D12CD9fA2a",
  "abi": [
    {
      "inputs": [
        {
          "internalType": "address",
          "name": "initialOwner",
          "type": "address"
        }
      ],
      "stateMutability": "nonpayable",
      "type": "constructor"
    },
    {
      "inputs": [
        {
          "internalType": "address",
          "name": "sender",
          "type": "address"
        },
        {
          "internalType": "uint256",
          "name": "tokenId",
          "type": "uint256"
        },
        {
          "internalType": "address",
          "name": "owner",
          "type": "address"
        }
      ],
      "name": "ERC721IncorrectOwner",
      "type": "error"
    },
    {
      "inputs": [
        {
          "internalType": "address",
          "name": "operator",
          "type": "address"
        },
        {
          "internalType": "uint256",
          "name": "tokenId",
          "type": "uint256"
        }
      ],
      "name": "ERC721InsufficientApproval",
      "type": "error"
    },
    {
      "inputs": [
        {
          "internalType": "address",
          "name": "approver",
          "type": "address"
        }
      ],
      "name": "ERC721InvalidApprover",
      "type": "error"
    },
    {
      "inputs": [
        {
          "internalType": "address",
          "name": "operator",
          "type": "address"
        }
      ],
      "name": "ERC721InvalidOperator",
      "type": "error"
    },
    {
      "inputs": [
        {
          "internalType": "address",
          "name": "owner",
          "type": "address"
        }
      ],
      "name": "ERC721InvalidOwner",
      "type": "error"
    },
    {
      "inputs": [
        {
          "internalType": "address",
          "name": "receiver",
          "type": "address"
        }
      ],
      "name": "ERC721InvalidReceiver",
      "type": "error"
    },
    {
      "inputs": [
        {
          "internalType": "address",
          "name": "sender",
          "type": "address"
        }
      ],
      "name": "ERC721InvalidSender",
      "type": "error"
    },
    {
      "inputs": [
        {
          "internalType": "uint256",
          "name": "tokenId",
          "type": "uint256"
        }
      ],
      "name": "ERC721NonexistentToken",
      "type": "error"
    },
    {
      "inputs": [
        {
          "internalType": "address",
          "name": "owner",
          "type": "address"
        }
      ],
      "name": "OwnableInvalidOwner",
      "type": "error"
    },
    {
      "inputs": [
        {
          "internalType": "address",
          "name": "account",
          "type": "address"
        }
      ],
      "name": "OwnableUnauthorizedAccount",
      "type": "error"
    },
    {
      "anonymous": false,
      "inputs": [
        {
          "indexed": true,
          "internalType": "address",
          "name": "owner",
          "type": "address"
        },
        {
          "indexed": true,
          "internalType": "address",
          "name": "approved",
          "type": "address"
        },
        {
          "indexed": true,
          "internalType": "uint256",
          "name": "tokenId",
          "type": "uint256"
        }
      ],
      "name": "Approval",
      "type": "event"
    },
    {
      "anonymous": false,
      "inputs": [
        {
          "indexed": true,
          "internalType": "address",
          "name": "owner",
          "type": "address"
        },
        {
          "indexed": true,
          "internalType": "address",
          "name": "operator",
          "type": "address"
        },
        {
          "indexed": false,
          "internalType": "bool",
          "name": "approved",
          "type": "bool"
        }
      ],
      "name": "ApprovalForAll",
      "type": "event"
    },
    {
      "anonymous": false,
      "inputs": [
        {
          "indexed": false,
          "internalType": "uint256",
          "name": "_fromTokenId",
          "type": "uint256"
        },
        {
          "indexed": false,
          "internalType": "uint256",
          "name": "_toTokenId",
          "type": "uint256"
        }
      ],
      "name": "BatchMetadataUpdate",
      "type": "event"
    },
    {
      "anonymous": false,
      "inputs": [
        {
          "indexed": false,
          "internalType": "enum HogwartsTournament.HogwartsHouse",
          "name": "house",
          "type": "uint8"
        },
        {
          "indexed": false,
          "internalType": "uint256",
          "name": "newPoints",
          "type": "uint256"
        }
      ],
      "name": "HousePointsUpdated",
      "type": "event"
    },
    {
      "anonymous": false,
      "inputs": [
        {
          "indexed": false,
          "internalType": "uint256",
          "name": "_tokenId",
          "type": "uint256"
        }
      ],
      "name": "MetadataUpdate",
      "type": "event"
    },
    {
      "anonymous": false,
      "inputs": [
        {
          "indexed": true,
          "internalType": "address",
          "name": "minter",
          "type": "address"
        },
        {
          "indexed": false,
          "internalType": "uint256",
          "name": "tokenId",
          "type": "uint256"
        },
        {
          "indexed": false,
          "internalType": "string",
          "name": "tokenURI",
          "type": "string"
        },
        {
          "indexed": false,
          "internalType": "enum HogwartsTournament.HogwartsHouse",
          "name": "house",
          "type": "uint8"
        },
        {
          "indexed": false,
          "internalType": "string",
          "name": "name",
          "type": "string"
        }
      ],
      "name": "NFTMinted",
      "type": "event"
    },
    {
      "anonymous": false,
      "inputs": [
        {
          "indexed": true,
          "internalType": "address",
          "name": "previousOwner",
          "type": "address"
        },
        {
          "indexed": true,
          "internalType": "address",
          "name": "newOwner",
          "type": "address"
        }
      ],
      "name": "OwnershipTransferred",
      "type": "event"
    },
    {
      "anonymous": false,
      "inputs": [
        {
          "indexed": true,
          "internalType": "address",
          "name": "from",
          "type": "address"
        },
        {
          "indexed": true,
          "internalType": "address",
          "name": "to",
          "type": "address"
        },
        {
          "indexed": true,
          "internalType": "uint256",
          "name": "tokenId",
          "type": "uint256"
        }
      ],
      "name": "Transfer",
      "type": "event"
    },
    {
      "anonymous": false,
      "inputs": [
        {
          "indexed": false,
          "internalType": "uint256",
          "name": "tokenId",
          "type": "uint256"
        },
        {
          "indexed": false,
          "internalType": "uint256",
          "name": "reviverTokenId",
          "type": "uint256"
        }
      ],
      "name": "WizardRevived",
      "type": "event"
    },
    {
      "anonymous": false,
      "inputs": [
        {
          "indexed": false,
          "internalType": "uint256",
          "name": "tokenId",
          "type": "uint256"
        }
      ],
      "name": "WizardStunned",
      "type": "event"
    },
    {
      "inputs": [
        {
          "internalType": "address",
          "name": "to",
          "type": "address"
        },
        {
          "internalType": "uint256",
          "name": "tokenId",
          "type": "uint256"
        }
      ],
      "name": "approve",
      "outputs": [],
      "stateMutability": "nonpayable",
      "type": "function"
    },
    {
      "inputs": [
        {
          "internalType": "address",
          "name": "owner",
          "type": "address"
        }
      ],
      "name": "balanceOf",
      "outputs": [
        {
          "internalType": "uint256",
          "name": "",
          "type": "uint256"
        }
      ],
      "stateMutability": "view",
      "type": "function"
    },
    {
      "inputs": [
        {
          "internalType": "uint256",
          "name": "tokenId",
          "type": "uint256"
        }
      ],
      "name": "getApproved",
      "outputs": [
        {
          "internalType": "address",
          "name": "",
          "type": "address"
        }
      ],
      "stateMutability": "view",
      "type": "function"
    },
    {
      "inputs": [
        {
          "internalType": "enum HogwartsTournament.HogwartsHouse",
          "name": "house",
          "type": "uint8"
        }
      ],
      "name": "getHousePoints",
      "outputs": [
        {
          "internalType": "uint256",
          "name": "",
          "type": "uint256"
        }
      ],
      "stateMutability": "view",
      "type": "function"
    },
    {
      "inputs": [
        {
          "internalType": "uint256",
          "name": "tokenId",
          "type": "uint256"
        }
      ],
      "name": "getTokenHouse",
      "outputs": [
        {
          "internalType": "enum HogwartsTournament.HogwartsHouse",
          "name": "",
          "type": "uint8"
        }
      ],
      "stateMutability": "view",
      "type": "function"
    },
    {
      "inputs": [
        {
          "internalType": "uint256",
          "name": "tokenId",
          "type": "uint256"
        }
      ],
      "name": "getWizardName",
      "outputs": [
        {
          "internalType": "string",
          "name": "",
          "type": "string"
        }
      ],
      "stateMutability": "view",
      "type": "function"
    },
    {
      "inputs": [
        {
          "internalType": "uint256",
          "name": "tokenId",
          "type": "uint256"
        }
      ],
      "name": "getWizardStatus",
      "outputs": [
        {
          "components": [
            {
              "internalType": "enum HogwartsTournament.HogwartsHouse",
              "name": "house",
              "type": "uint8"
            },
            {
              "internalType": "bool",
              "name": "stunned",
              "type": "bool"
            },
            {
              "internalType": "string",
              "name": "name",
              "type": "string"
            }
          ],
          "internalType": "struct HogwartsTournament.WizardStatus",
          "name": "",
          "type": "tuple"
        }
      ],
      "stateMutability": "view",
      "type": "function"
    },
    {
      "inputs": [
        {
          "internalType": "enum HogwartsTournament.HogwartsHouse",
          "name": "",
          "type": "uint8"
        }
      ],
      "name": "housePoints",
      "outputs": [
        {
          "internalType": "uint256",
          "name": "",
          "type": "uint256"
        }
      ],
      "stateMutability": "view",
      "type": "function"
    },
    {
      "inputs": [
        {
          "internalType": "address",
          "name": "owner",
          "type": "address"
        },
        {
          "internalType": "address",
          "name": "operator",
          "type": "address"
        }
      ],
      "name": "isApprovedForAll",
      "outputs": [
        {
          "internalType": "bool",
          "name": "",
          "type": "bool"
        }
      ],
      "stateMutability": "view",
      "type": "function"
    },
    {
      "inputs": [
        {
          "internalType": "uint256",
          "name": "",
          "type": "uint256"
        }
      ],
      "name": "isStunned",
      "outputs": [
        {
          "internalType": "bool",
          "name": "",
          "type": "bool"
        }
      ],
      "stateMutability": "view",
      "type": "function"
    },
    {
      "inputs": [
        {
          "internalType": "enum HogwartsTournament.HogwartsHouse",
          "name": "house",
          "type": "uint8"
        },
        {
          "internalType": "uint256",
          "name": "points",
          "type": "uint256"
        },
        {
          "internalType": "bool",
          "name": "add",
          "type": "bool"
        }
      ],
      "name": "modifyHousePoints",
      "outputs": [],
      "stateMutability": "nonpayable",
      "type": "function"
    },
    {
      "inputs": [],
      "name": "name",
      "outputs": [
        {
          "internalType": "string",
          "name": "",
          "type": "string"
        }
      ],
      "stateMutability": "view",
      "type": "function"
    },
    {
      "inputs": [],
      "name": "owner",
      "outputs": [
        {
          "internalType": "address",
          "name": "",
          "type": "address"
        }
      ],
      "stateMutability": "view",
      "type": "function"
    },
    {
      "inputs": [
        {
          "internalType": "uint256",
          "name": "tokenId",
          "type": "uint256"
        }
      ],
      "name": "ownerOf",
      "outputs": [
        {
          "internalType": "address",
          "name": "",
          "type": "address"
        }
      ],
      "stateMutability": "view",
      "type": "function"
    },
    {
      "inputs": [
        {
          "internalType": "uint256",
          "name": "targetTokenId",
          "type": "uint256"
        }
      ],
      "name": "rennervate",
      "outputs": [],
      "stateMutability": "nonpayable",
      "type": "function"
    },
    {
      "inputs": [],
      "name": "renounceOwnership",
      "outputs": [],
      "stateMutability": "nonpayable",
      "type": "function"
    },
    {
      "inputs": [
        {
          "internalType": "enum HogwartsTournament.HogwartsHouse",
          "name": "house",
          "type": "uint8"
        },
        {
          "internalType": "string",
          "name": "wizardName",
          "type": "string"
        }
      ],
      "name": "safeMint",
      "outputs": [],
      "stateMutability": "nonpayable",
      "type": "function"
    },
    {
      "inputs": [
        {
          "internalType": "address",
          "name": "from",
          "type": "address"
        },
        {
          "internalType": "address",
          "name": "to",
          "type": "address"
        },
        {
          "internalType": "uint256",
          "name": "tokenId",
          "type": "uint256"
        }
      ],
      "name": "safeTransferFrom",
      "outputs": [],
      "stateMutability": "nonpayable",
      "type": "function"
    },
    {
      "inputs": [
        {
          "internalType": "address",
          "name": "from",
          "type": "address"
        },
        {
          "internalType": "address",
          "name": "to",
          "type": "address"
        },
        {
          "internalType": "uint256",
          "name": "tokenId",
          "type": "uint256"
        },
        {
          "internalType": "bytes",
          "name": "data",
          "type": "bytes"
        }
      ],
      "name": "safeTransferFrom",
      "outputs": [],
      "stateMutability": "nonpayable",
      "type": "function"
    },
    {
      "inputs": [
        {
          "internalType": "address",
          "name": "operator",
          "type": "address"
        },
        {
          "internalType": "bool",
          "name": "approved",
          "type": "bool"
        }
      ],
      "name": "setApprovalForAll",
      "outputs": [],
      "stateMutability": "nonpayable",
      "type": "function"
    },
    {
      "inputs": [
        {
          "internalType": "uint256",
          "name": "targetTokenId",
          "type": "uint256"
        }
      ],
      "name": "stupefy",
      "outputs": [],
      "stateMutability": "nonpayable",
      "type": "function"
    },
    {
      "inputs": [
        {
          "internalType": "bytes4",
          "name": "interfaceId",
          "type": "bytes4"
        }
      ],
      "name": "supportsInterface",
      "outputs": [
        {
          "internalType": "bool",
          "name": "",
          "type": "bool"
        }
      ],
      "stateMutability": "view",
      "type": "function"
    },
    {
      "inputs": [],
      "name": "symbol",
      "outputs": [
        {
          "internalType": "string",
          "name": "",
          "type": "string"
        }
      ],
      "stateMutability": "view",
      "type": "function"
    },
    {
      "inputs": [
        {
          "internalType": "uint256",
          "name": "",
          "type": "uint256"
        }
      ],
      "name": "tokenHouse",
      "outputs": [
        {
          "internalType": "enum HogwartsTournament.HogwartsHouse",
          "name": "",
          "type": "uint8"
        }
      ],
      "stateMutability": "view",
      "type": "function"
    },
    {
      "inputs": [
        {
          "internalType": "uint256",
          "name": "tokenId",
          "type": "uint256"
        }
      ],
      "name": "tokenURI",
      "outputs": [
        {
          "internalType": "string",
          "name": "",
          "type": "string"
        }
      ],
      "stateMutability": "view",
      "type": "function"
    },
    {
      "inputs": [
        {
          "internalType": "address",
          "name": "from",
          "type": "address"
        },
        {
          "internalType": "address",
          "name": "to",
          "type": "address"
        },
        {
          "internalType": "uint256",
          "name": "tokenId",
          "type": "uint256"
        }
      ],
      "name": "transferFrom",
      "outputs": [],
      "stateMutability": "nonpayable",
      "type": "function"
    },
    {
      "inputs": [
        {
          "internalType": "address",
          "name": "newOwner",
          "type": "address"
        }
      ],
      "name": "transferOwnership",
      "outputs": [],
      "stateMutability": "nonpayable",
      "type": "function"
    },
    {
      "inputs": [
        {
          "internalType": "uint256",
          "name": "",
          "type": "uint256"
        }
      ],
      "name": "wizardNames",
      "outputs": [
        {
          "internalType": "string",
          "name": "",
          "type": "string"
        }
      ],
      "stateMutability": "view",
      "type": "function"
    }
  ],
  "transactionHash": "0xe6c0cabed991526f11bc7f189c620429870239a8c30dc4b8a91acfef784af996",
  "args": [
    "0xBb5E56052a2eaa1E7eaA3e9B8099374AEd4927e5"
  ],
  "numDeployments": 2,
  "solcInputHash": "bd6446043dc9e9e8b1663e6d0d94eda9",
  "bytecode": "0x60806040523480156200001157600080fd5b506040516200297a3803806200297a833981016040819052620000349162000128565b806040518060400160405280600681526020016515da5e985c9960d21b8152506040518060400160405280600481526020016315d6949160e21b8152508160009081620000829190620001ff565b506001620000918282620001ff565b5050506001600160a01b038116620000c357604051631e4fbdf760e01b81526000600482015260240160405180910390fd5b620000ce81620000d6565b5050620002cb565b600780546001600160a01b038381166001600160a01b0319831681179093556040519116919082907f8be0079c531659141344cd1fd0a4f28419497f9722a3daafe3b4186f6b6457e090600090a35050565b6000602082840312156200013b57600080fd5b81516001600160a01b03811681146200015357600080fd5b9392505050565b634e487b7160e01b600052604160045260246000fd5b600181811c908216806200018557607f821691505b602082108103620001a657634e487b7160e01b600052602260045260246000fd5b50919050565b601f821115620001fa57600081815260208120601f850160051c81016020861015620001d55750805b601f850160051c820191505b81811015620001f657828155600101620001e1565b5050505b505050565b81516001600160401b038111156200021b576200021b6200015a565b62000233816200022c845462000170565b84620001ac565b602080601f8311600181146200026b5760008415620002525750858301515b600019600386901b1c1916600185901b178555620001f6565b600085815260208120601f198616915b828110156200029c578886015182559484019460019091019084016200027b565b5085821015620002bb5787850151600019600388901b60f8161c191681555b5050505050600190811b01905550565b61269f80620002db6000396000f3fe608060405234801561001057600080fd5b50600436106101c45760003560e01c806370a08231116100f9578063b88d4fde11610097578063e0a75f3a11610071578063e0a75f3a146103f2578063e985e9c514610412578063f2fde38b14610425578063faff8bbf1461043857600080fd5b8063b88d4fde146103b9578063bf399691146103cc578063c87b56dd146103df57600080fd5b806395d89b41116100d357806395d89b4114610368578063a22cb46514610370578063a52bffa814610383578063aa7bb7ed146103a657600080fd5b806370a082311461033c578063715018a61461034f5780638da5cb5b1461035757600080fd5b80633133dbac1161016657806342842e0e1161014057806342842e0e146102e35780635373a352146102f657806363249ebf146103095780636352211e1461032957600080fd5b80633133dbac1461028d578063418a85fe146102ad5780634237da99146102c057600080fd5b8063095ea7b3116101a2578063095ea7b3146102315780630ad7c0b5146102465780630b0c09b31461026757806323b872dd1461027a57600080fd5b806301ffc9a7146101c957806306fdde03146101f1578063081812fc14610206575b600080fd5b6101dc6101d7366004611fa6565b61044b565b60405190151581526020015b60405180910390f35b6101f961045c565b6040516101e89190612013565b610219610214366004612026565b6104ee565b6040516001600160a01b0390911681526020016101e8565b61024461023f36600461205b565b610517565b005b610259610254366004612094565b610526565b6040519081526020016101e8565b6102446102753660046120bf565b610565565b6102446102883660046120fb565b61070a565b6102a061029b366004612026565b610795565b6040516101e8919061216f565b6102446102bb366004612209565b6107dd565b6101dc6102ce366004612026565b600c6020526000908152604090205460ff1681565b6102446102f13660046120fb565b610beb565b610244610304366004612026565b610c0b565b610259610317366004612094565b600b6020526000908152604090205481565b610219610337366004612026565b610f23565b61025961034a36600461226b565b610f2e565b610244610f76565b6007546001600160a01b0316610219565b6101f9610f8a565b61024461037e366004612286565b610f99565b6102a0610391366004612026565b600a6020526000908152604090205460ff1681565b6101f96103b4366004612026565b610fa4565b6102446103c73660046122b9565b611075565b6102446103da366004612026565b61108c565b6101f96103ed366004612026565b61138f565b610405610400366004612026565b61139a565b6040516101e89190612335565b6101dc61042036600461236d565b6114d6565b61024461043336600461226b565b611504565b6101f9610446366004612026565b611542565b6000610456826115dc565b92915050565b60606000805461046b90612397565b80601f016020809104026020016040519081016040528092919081815260200182805461049790612397565b80156104e45780601f106104b9576101008083540402835291602001916104e4565b820191906000526020600020905b8154815290600101906020018083116104c757829003601f168201915b5050505050905090565b60006104f982611601565b506000828152600460205260409020546001600160a01b0316610456565b610522828233611639565b5050565b6000600b600083600381111561053e5761053e612137565b600381111561054f5761054f612137565b8152602001908152602001600020549050919050565b61056d611646565b80156105c35781600b600085600381111561058a5761058a612137565b600381111561059b5761059b612137565b815260200190815260200160002060008282546105b891906123e7565b909155506106a99050565b81600b60008560038111156105da576105da612137565b60038111156105eb576105eb612137565b815260200190815260200160002054101561065e5760405162461bcd60e51b815260206004820152602860248201527f43616e6e6f7420646564756374206d6f726520706f696e7473207468616e20616044820152677661696c61626c6560c01b60648201526084015b60405180910390fd5b81600b600085600381111561067557610675612137565b600381111561068657610686612137565b815260200190815260200160002060008282546106a391906123fa565b90915550505b60008051602061264a83398151915283600b60008660038111156106cf576106cf612137565b60038111156106e0576106e0612137565b8152602001908152602001600020546040516106fd92919061240d565b60405180910390a1505050565b6001600160a01b03821661073457604051633250574960e11b815260006004820152602401610655565b6000610741838333611673565b9050836001600160a01b0316816001600160a01b03161461078f576040516364283d7b60e01b81526001600160a01b0380861660048301526024820184905282166044820152606401610655565b50505050565b6000806107a183611767565b6001600160a01b0316036107c75760405162461bcd60e51b815260040161065590612428565b506000908152600a602052604090205460ff1690565b3360009081526009602052604090205460ff16156108475760405162461bcd60e51b815260206004820152602160248201527f416464726573732068617320616c7265616479206d696e74656420616e204e466044820152601560fa1b6064820152608401610655565b600382600381111561085b5761085b612137565b60ff1611156108ac5760405162461bcd60e51b815260206004820152601760248201527f496e76616c696420686f7573652073656c656374696f6e0000000000000000006044820152606401610655565b60008151116108fd5760405162461bcd60e51b815260206004820152601b60248201527f57697a617264206e616d652063616e6e6f7420626520656d70747900000000006044820152606401610655565b6028815111156109465760405162461bcd60e51b815260206004820152601460248201527357697a617264206e616d6520746f6f206c6f6e6760601b6044820152606401610655565b600880546000918261095783612456565b9190505590506109673382611782565b6060600084600381111561097d5761097d612137565b036109bc575060408051808201909152601781527f697066733a2f2f516d4772796666696e646f72486173680000000000000000006020820152610a8a565b60018460038111156109d0576109d0612137565b03610a0f575060408051808201909152601781527f697066733a2f2f516d487566666c6570756666486173680000000000000000006020820152610a8a565b6002846003811115610a2357610a23612137565b03610a5b57506040805180820190915260168152750d2e0cce6745e5ea2daa4c2eccadcc6d8c2ee90c2e6d60531b6020820152610a8a565b506040805180820190915260168152750d2e0cce6745e5ea2daa6d8f2e8d0cae4d2dc90c2e6d60531b60208201525b610a94828261179c565b6000828152600a60205260409020805485919060ff19166001836003811115610abf57610abf612137565b02179055506000828152600d60205260409020610adc84826124bd565b50336000908152600960205260408120805460ff19166001179055600390600b908683811115610b0e57610b0e612137565b6003811115610b1f57610b1f612137565b81526020019081526020016000206000828254610b3c91906123e7565b9091555060008051602061264a833981519152905084600b6000826003811115610b6857610b68612137565b6003811115610b7957610b79612137565b815260200190815260200160002054604051610b9692919061240d565b60405180910390a1336001600160a01b03167fa87dd51031a6f7041187c1c379ce1ddabe19d6e56f4601168b5e4f3377f24e6383838787604051610bdd949392919061257d565b60405180910390a250505050565b610c0683838360405180602001604052806000815250611075565b505050565b6000610c1633610f2e565b11610c715760405162461bcd60e51b815260206004820152602560248201527f4d757374206f776e20612077697a617264204e465420746f2063617374205374604482015264757065667960d81b6064820152608401610655565b600854600090815b81811015610cb35733610c8b82610f23565b6001600160a01b031603610ca157809250610cb3565b80610cab81612456565b915050610c79565b506000610cbf84611767565b6001600160a01b031603610d155760405162461bcd60e51b815260206004820152601c60248201527f5461726765742077697a61726420646f6573206e6f74206578697374000000006044820152606401610655565b6000838152600c602052604090205460ff1615610d745760405162461bcd60e51b815260206004820152601960248201527f57697a61726420697320616c7265616479207374756e6e6564000000000000006044820152606401610655565b6000838152600a602052604090205460ff166003811115610d9757610d97612137565b6000838152600a602052604090205460ff166003811115610dba57610dba612137565b03610e175760405162461bcd60e51b815260206004820152602760248201527f43616e6e6f74207374756e2077697a617264732066726f6d20796f7572206f776044820152666e20686f75736560c81b6064820152608401610655565b6000838152600c60209081526040808320805460ff19166001179055848352600a90915281205460ff1690600590600b90836003811115610e5a57610e5a612137565b6003811115610e6b57610e6b612137565b81526020019081526020016000206000828254610e8891906123e7565b9091555060008051602061264a833981519152905081600b6000826003811115610eb457610eb4612137565b6003811115610ec557610ec5612137565b815260200190815260200160002054604051610ee292919061240d565b60405180910390a16040518481527fdbf026cdd2b0597d2aeb09aa7a211bc4c8639787a86a7efebd72dd17c5ed06d09060200160405180910390a150505050565b600061045682611601565b60006001600160a01b038216610f5a576040516322718ad960e21b815260006004820152602401610655565b506001600160a01b031660009081526003602052604090205490565b610f7e611646565b610f8860006117ec565b565b60606001805461046b90612397565b61052233838361183e565b60606000610fb183611767565b6001600160a01b031603610fd75760405162461bcd60e51b815260040161065590612428565b6000828152600d602052604090208054610ff090612397565b80601f016020809104026020016040519081016040528092919081815260200182805461101c90612397565b80156110695780601f1061103e57610100808354040283529160200191611069565b820191906000526020600020905b81548152906001019060200180831161104c57829003601f168201915b50505050509050919050565b61108084848461070a565b61078f848484846118dd565b600061109782611767565b6001600160a01b0316036110ed5760405162461bcd60e51b815260206004820152601c60248201527f5461726765742077697a61726420646f6573206e6f74206578697374000000006044820152606401610655565b6000818152600c602052604090205460ff1661114b5760405162461bcd60e51b815260206004820152601c60248201527f5461726765742077697a617264206973206e6f74207374756e6e6564000000006044820152606401610655565b6008546000908190815b81811015611193573361116782610f23565b6001600160a01b0316036111815780935060019250611193565b8061118b81612456565b915050611155565b50816111f25760405162461bcd60e51b815260206004820152602860248201527f4d757374206f776e20612077697a617264204e465420746f20636173742052656044820152676e6e65727661746560c01b6064820152608401610655565b6000838152600a60205260408082205486835291205460ff918216911680600381111561122157611221612137565b82600381111561123357611233612137565b146112905760405162461bcd60e51b815260206004820152602760248201527f43616e206f6e6c79207265766976652077697a617264732066726f6d20796f756044820152667220686f75736560c81b6064820152608401610655565b6000868152600c60205260408120805460ff19169055600590600b908460038111156112be576112be612137565b60038111156112cf576112cf612137565b815260200190815260200160002060008282546112ec91906123e7565b9091555060008051602061264a833981519152905082600b600082600381111561131857611318612137565b600381111561132957611329612137565b81526020019081526020016000205460405161134692919061240d565b60405180910390a160408051878152602081018790527fdc4f7a0353a3c734793792dc48b5bcee28ba44d52e270b0554b7e08f3327ec4c910160405180910390a1505050505050565b606061045682611a06565b604080516060808201835260008083526020830181905292820152906113bf83611767565b6001600160a01b0316036113e55760405162461bcd60e51b815260040161065590612428565b604080516060810182526000848152600a6020529190912054819060ff16600381111561141457611414612137565b81526000848152600c602090815260408083205460ff16151582850152868352600d90915290819020805491909201919061144e90612397565b80601f016020809104026020016040519081016040528092919081815260200182805461147a90612397565b80156114c75780601f1061149c576101008083540402835291602001916114c7565b820191906000526020600020905b8154815290600101906020018083116114aa57829003601f168201915b50505050508152509050919050565b6001600160a01b03918216600090815260056020908152604080832093909416825291909152205460ff1690565b61150c611646565b6001600160a01b03811661153657604051631e4fbdf760e01b815260006004820152602401610655565b61153f816117ec565b50565b600d602052600090815260409020805461155b90612397565b80601f016020809104026020016040519081016040528092919081815260200182805461158790612397565b80156115d45780601f106115a9576101008083540402835291602001916115d4565b820191906000526020600020905b8154815290600101906020018083116115b757829003601f168201915b505050505081565b60006001600160e01b03198216632483248360e11b1480610456575061045682611b17565b60008061160d83611767565b90506001600160a01b03811661045657604051637e27328960e01b815260048101849052602401610655565b610c068383836001611b67565b6007546001600160a01b03163314610f885760405163118cdaa760e01b8152336004820152602401610655565b60008061167f84611767565b90506001600160a01b0383161561169b5761169b818486611c6d565b6001600160a01b038116156116d9576116b8600085600080611b67565b6001600160a01b038116600090815260036020526040902080546000190190555b6001600160a01b03851615611708576001600160a01b0385166000908152600360205260409020805460010190555b60008481526002602052604080822080546001600160a01b0319166001600160a01b0389811691821790925591518793918516917fddf252ad1be2c89b69c2b068fc378daa952ba7f163c4a11628f55a4df523b3ef91a4949350505050565b6000908152600260205260409020546001600160a01b031690565b610522828260405180602001604052806000815250611cd1565b60008281526006602052604090206117b482826124bd565b506040518281527ff8e1a15aba9398e019f0b49df1a4fde98ee17ae345cb5f6b5e2c27f5033e8ce79060200160405180910390a15050565b600780546001600160a01b038381166001600160a01b0319831681179093556040519116919082907f8be0079c531659141344cd1fd0a4f28419497f9722a3daafe3b4186f6b6457e090600090a35050565b6001600160a01b03821661187057604051630b61174360e31b81526001600160a01b0383166004820152602401610655565b6001600160a01b03838116600081815260056020908152604080832094871680845294825291829020805460ff191686151590811790915591519182527f17307eab39ab6107e8899845ad3d59bd9653f200f220920489ca2b5937696c31910160405180910390a3505050565b6001600160a01b0383163b1561078f57604051630a85bd0160e11b81526001600160a01b0384169063150b7a029061191f9033908890879087906004016125c0565b6020604051808303816000875af192505050801561195a575060408051601f3d908101601f19168201909252611957918101906125fd565b60015b6119c3573d808015611988576040519150601f19603f3d011682016040523d82523d6000602084013e61198d565b606091505b5080516000036119bb57604051633250574960e11b81526001600160a01b0385166004820152602401610655565b805181602001fd5b6001600160e01b03198116630a85bd0160e11b146119ff57604051633250574960e11b81526001600160a01b0385166004820152602401610655565b5050505050565b6060611a1182611601565b5060008281526006602052604081208054611a2b90612397565b80601f0160208091040260200160405190810160405280929190818152602001828054611a5790612397565b8015611aa45780601f10611a7957610100808354040283529160200191611aa4565b820191906000526020600020905b815481529060010190602001808311611a8757829003601f168201915b505050505090506000611ac260408051602081019091526000815290565b90508051600003611ad4575092915050565b815115611b06578082604051602001611aee92919061261a565b60405160208183030381529060405292505050919050565b611b0f84611ce8565b949350505050565b60006001600160e01b031982166380ac58cd60e01b1480611b4857506001600160e01b03198216635b5e139f60e01b145b8061045657506301ffc9a760e01b6001600160e01b0319831614610456565b8080611b7b57506001600160a01b03821615155b15611c3d576000611b8b84611601565b90506001600160a01b03831615801590611bb75750826001600160a01b0316816001600160a01b031614155b8015611bca5750611bc881846114d6565b155b15611bf35760405163a9fbf51f60e01b81526001600160a01b0384166004820152602401610655565b8115611c3b5783856001600160a01b0316826001600160a01b03167f8c5be1e5ebec7d5bd14f71427d1e84f3dd0314c0f7b2291e5b200ac8c7c3b92560405160405180910390a45b505b5050600090815260046020526040902080546001600160a01b0319166001600160a01b0392909216919091179055565b611c78838383611d5d565b610c06576001600160a01b038316611ca657604051637e27328960e01b815260048101829052602401610655565b60405163177e802f60e01b81526001600160a01b038316600482015260248101829052604401610655565b611cdb8383611dc0565b610c0660008484846118dd565b6060611cf382611601565b506000611d0b60408051602081019091526000815290565b90506000815111611d2b5760405180602001604052806000815250611d56565b80611d3584611e25565b604051602001611d4692919061261a565b6040516020818303038152906040525b9392505050565b60006001600160a01b03831615801590611b0f5750826001600160a01b0316846001600160a01b03161480611d975750611d9784846114d6565b80611b0f5750506000908152600460205260409020546001600160a01b03908116911614919050565b6001600160a01b038216611dea57604051633250574960e11b815260006004820152602401610655565b6000611df883836000611673565b90506001600160a01b03811615610c06576040516339e3563760e11b815260006004820152602401610655565b60606000611e3283611eb8565b600101905060008167ffffffffffffffff811115611e5257611e5261217d565b6040519080825280601f01601f191660200182016040528015611e7c576020820181803683370190505b5090508181016020015b600019016f181899199a1a9b1b9c1cb0b131b232b360811b600a86061a8153600a8504945084611e8657509392505050565b60008072184f03e93ff9f4daa797ed6e38ed64bf6a1f0160401b8310611ef75772184f03e93ff9f4daa797ed6e38ed64bf6a1f0160401b830492506040015b6d04ee2d6d415b85acef81000000008310611f23576d04ee2d6d415b85acef8100000000830492506020015b662386f26fc100008310611f4157662386f26fc10000830492506010015b6305f5e1008310611f59576305f5e100830492506008015b6127108310611f6d57612710830492506004015b60648310611f7f576064830492506002015b600a83106104565760010192915050565b6001600160e01b03198116811461153f57600080fd5b600060208284031215611fb857600080fd5b8135611d5681611f90565b60005b83811015611fde578181015183820152602001611fc6565b50506000910152565b60008151808452611fff816020860160208601611fc3565b601f01601f19169290920160200192915050565b602081526000611d566020830184611fe7565b60006020828403121561203857600080fd5b5035919050565b80356001600160a01b038116811461205657600080fd5b919050565b6000806040838503121561206e57600080fd5b6120778361203f565b946020939093013593505050565b80356004811061205657600080fd5b6000602082840312156120a657600080fd5b611d5682612085565b8035801515811461205657600080fd5b6000806000606084860312156120d457600080fd5b6120dd84612085565b9250602084013591506120f2604085016120af565b90509250925092565b60008060006060848603121561211057600080fd5b6121198461203f565b92506121276020850161203f565b9150604084013590509250925092565b634e487b7160e01b600052602160045260246000fd5b6004811061216b57634e487b7160e01b600052602160045260246000fd5b9052565b60208101610456828461214d565b634e487b7160e01b600052604160045260246000fd5b600067ffffffffffffffff808411156121ae576121ae61217d565b604051601f8501601f19908116603f011681019082821181831017156121d6576121d661217d565b816040528093508581528686860111156121ef57600080fd5b858560208301376000602087830101525050509392505050565b6000806040838503121561221c57600080fd5b61222583612085565b9150602083013567ffffffffffffffff81111561224157600080fd5b8301601f8101851361225257600080fd5b61226185823560208401612193565b9150509250929050565b60006020828403121561227d57600080fd5b611d568261203f565b6000806040838503121561229957600080fd5b6122a28361203f565b91506122b0602084016120af565b90509250929050565b600080600080608085870312156122cf57600080fd5b6122d88561203f565b93506122e66020860161203f565b925060408501359150606085013567ffffffffffffffff81111561230957600080fd5b8501601f8101871361231a57600080fd5b61232987823560208401612193565b91505092959194509250565b6020815261234760208201835161214d565b60208201511515604082015260006040830151606080840152611b0f6080840182611fe7565b6000806040838503121561238057600080fd5b6123898361203f565b91506122b06020840161203f565b600181811c908216806123ab57607f821691505b6020821081036123cb57634e487b7160e01b600052602260045260246000fd5b50919050565b634e487b7160e01b600052601160045260246000fd5b80820180821115610456576104566123d1565b81810381811115610456576104566123d1565b6040810161241b828561214d565b8260208301529392505050565b602080825260149082015273151bdad95b88191bd95cc81b9bdd08195e1a5cdd60621b604082015260600190565b600060018201612468576124686123d1565b5060010190565b601f821115610c0657600081815260208120601f850160051c810160208610156124965750805b601f850160051c820191505b818110156124b5578281556001016124a2565b505050505050565b815167ffffffffffffffff8111156124d7576124d761217d565b6124eb816124e58454612397565b8461246f565b602080601f83116001811461252057600084156125085750858301515b600019600386901b1c1916600185901b1785556124b5565b600085815260208120601f198616915b8281101561254f57888601518255948401946001909101908401612530565b508582101561256d5787850151600019600388901b60f8161c191681555b5050505050600190811b01905550565b8481526080602082015260006125966080830186611fe7565b6125a3604084018661214d565b82810360608401526125b58185611fe7565b979650505050505050565b6001600160a01b03858116825284166020820152604081018390526080606082018190526000906125f390830184611fe7565b9695505050505050565b60006020828403121561260f57600080fd5b8151611d5681611f90565b6000835161262c818460208801611fc3565b835190830190612640818360208801611fc3565b0194935050505056fe18777285f2d154fa154101f7df8a5ddfcd4b93f0b1a37e1c90e4bdd2d3854fdaa264697066735822122038208aa7351f82e5cf85edde6398e56e529a318821d771f1f606239b395922eb64736f6c63430008140033",
  "devdoc": {
    "errors": {
      "ERC721IncorrectOwner(address,uint256,address)": [
        {
          "details": "Indicates an error related to the ownership over a particular token. Used in transfers.",
          "params": {
            "owner": "Address of the current owner of a token.",
            "sender": "Address whose tokens are being transferred.",
            "tokenId": "Identifier number of a token."
          }
        }
      ],
      "ERC721InsufficientApproval(address,uint256)": [
        {
          "details": "Indicates a failure with the `operator`s approval. Used in transfers.",
          "params": {
            "operator": "Address that may be allowed to operate on tokens without being their owner.",
            "tokenId": "Identifier number of a token."
          }
        }
      ],
      "ERC721InvalidApprover(address)": [
        {
          "details": "Indicates a failure with the `approver` of a token to be approved. Used in approvals.",
          "params": {
            "approver": "Address initiating an approval operation."
          }
        }
      ],
      "ERC721InvalidOperator(address)": [
        {
          "details": "Indicates a failure with the `operator` to be approved. Used in approvals.",
          "params": {
            "operator": "Address that may be allowed to operate on tokens without being their owner."
          }
        }
      ],
      "ERC721InvalidOwner(address)": [
        {
          "details": "Indicates that an address can't be an owner. For example, `address(0)` is a forbidden owner in EIP-20. Used in balance queries.",
          "params": {
            "owner": "Address of the current owner of a token."
          }
        }
      ],
      "ERC721InvalidReceiver(address)": [
        {
          "details": "Indicates a failure with the token `receiver`. Used in transfers.",
          "params": {
            "receiver": "Address to which tokens are being transferred."
          }
        }
      ],
      "ERC721InvalidSender(address)": [
        {
          "details": "Indicates a failure with the token `sender`. Used in transfers.",
          "params": {
            "sender": "Address whose tokens are being transferred."
          }
        }
      ],
      "ERC721NonexistentToken(uint256)": [
        {
          "details": "Indicates a `tokenId` whose `owner` is the zero address.",
          "params": {
            "tokenId": "Identifier number of a token."
          }
        }
      ],
      "OwnableInvalidOwner(address)": [
        {
          "details": "The owner is not a valid owner account. (eg. `address(0)`)"
        }
      ],
      "OwnableUnauthorizedAccount(address)": [
        {
          "details": "The caller account is not authorized to perform an operation."
        }
      ]
    },
    "events": {
      "Approval(address,address,uint256)": {
        "details": "Emitted when `owner` enables `approved` to manage the `tokenId` token."
      },
      "ApprovalForAll(address,address,bool)": {
        "details": "Emitted when `owner` enables or disables (`approved`) `operator` to manage all of its assets."
      },
      "BatchMetadataUpdate(uint256,uint256)": {
        "details": "This event emits when the metadata of a range of tokens is changed. So that the third-party platforms such as NFT market could timely update the images and related attributes of the NFTs."
      },
      "MetadataUpdate(uint256)": {
        "details": "This event emits when the metadata of a token is changed. So that the third-party platforms such as NFT market could timely update the images and related attributes of the NFT."
      },
      "Transfer(address,address,uint256)": {
        "details": "Emitted when `tokenId` token is transferred from `from` to `to`."
      }
    },
    "kind": "dev",
    "methods": {
      "approve(address,uint256)": {
        "details": "See {IERC721-approve}."
      },
      "balanceOf(address)": {
        "details": "See {IERC721-balanceOf}."
      },
      "getApproved(uint256)": {
        "details": "See {IERC721-getApproved}."
      },
      "isApprovedForAll(address,address)": {
        "details": "See {IERC721-isApprovedForAll}."
      },
      "name()": {
        "details": "See {IERC721Metadata-name}."
      },
      "owner()": {
        "details": "Returns the address of the current owner."
      },
      "ownerOf(uint256)": {
        "details": "See {IERC721-ownerOf}."
      },
      "renounceOwnership()": {
        "details": "Leaves the contract without owner. It will not be possible to call `onlyOwner` functions. Can only be called by the current owner. NOTE: Renouncing ownership will leave the contract without an owner, thereby disabling any functionality that is only available to the owner."
      },
      "safeTransferFrom(address,address,uint256)": {
        "details": "See {IERC721-safeTransferFrom}."
      },
      "safeTransferFrom(address,address,uint256,bytes)": {
        "details": "See {IERC721-safeTransferFrom}."
      },
      "setApprovalForAll(address,bool)": {
        "details": "See {IERC721-setApprovalForAll}."
      },
      "symbol()": {
        "details": "See {IERC721Metadata-symbol}."
      },
      "transferFrom(address,address,uint256)": {
        "details": "See {IERC721-transferFrom}."
      },
      "transferOwnership(address)": {
        "details": "Transfers ownership of the contract to a new account (`newOwner`). Can only be called by the current owner."
      }
    },
    "version": 1
  },
  "userdoc": {
    "kind": "user",
    "methods": {},
    "version": 1
  },
  "storageLayout": {
    "storage": [
      {
        "astId": 349,
        "contract": "contracts/HogwartsTournament.sol:HogwartsTournament",
        "label": "_name",
        "offset": 0,
        "slot": "0",
        "type": "t_string_storage"
      },
      {
        "astId": 351,
        "contract": "contracts/HogwartsTournament.sol:HogwartsTournament",
        "label": "_symbol",
        "offset": 0,
        "slot": "1",
        "type": "t_string_storage"
      },
      {
        "astId": 355,
        "contract": "contracts/HogwartsTournament.sol:HogwartsTournament",
        "label": "_owners",
        "offset": 0,
        "slot": "2",
        "type": "t_mapping(t_uint256,t_address)"
      },
      {
        "astId": 359,
        "contract": "contracts/HogwartsTournament.sol:HogwartsTournament",
        "label": "_balances",
        "offset": 0,
        "slot": "3",
        "type": "t_mapping(t_address,t_uint256)"
      },
      {
        "astId": 363,
        "contract": "contracts/HogwartsTournament.sol:HogwartsTournament",
        "label": "_tokenApprovals",
        "offset": 0,
        "slot": "4",
        "type": "t_mapping(t_uint256,t_address)"
      },
      {
        "astId": 369,
        "contract": "contracts/HogwartsTournament.sol:HogwartsTournament",
        "label": "_operatorApprovals",
        "offset": 0,
        "slot": "5",
        "type": "t_mapping(t_address,t_mapping(t_address,t_bool))"
      },
      {
        "astId": 1488,
        "contract": "contracts/HogwartsTournament.sol:HogwartsTournament",
        "label": "_tokenURIs",
        "offset": 0,
        "slot": "6",
        "type": "t_mapping(t_uint256,t_string_storage)"
      },
      {
        "astId": 8,
        "contract": "contracts/HogwartsTournament.sol:HogwartsTournament",
        "label": "_owner",
        "offset": 0,
        "slot": "7",
        "type": "t_address"
      },
      {
        "astId": 3108,
        "contract": "contracts/HogwartsTournament.sol:HogwartsTournament",
        "label": "_nextTokenId",
        "offset": 0,
        "slot": "8",
        "type": "t_uint256"
      },
      {
        "astId": 3117,
        "contract": "contracts/HogwartsTournament.sol:HogwartsTournament",
        "label": "_hasMinted",
        "offset": 0,
        "slot": "9",
        "type": "t_mapping(t_address,t_bool)"
      },
      {
        "astId": 3122,
        "contract": "contracts/HogwartsTournament.sol:HogwartsTournament",
        "label": "tokenHouse",
        "offset": 0,
        "slot": "10",
        "type": "t_mapping(t_uint256,t_enum(HogwartsHouse)3113)"
      },
      {
        "astId": 3127,
        "contract": "contracts/HogwartsTournament.sol:HogwartsTournament",
        "label": "housePoints",
        "offset": 0,
        "slot": "11",
        "type": "t_mapping(t_enum(HogwartsHouse)3113,t_uint256)"
      },
      {
        "astId": 3131,
        "contract": "contracts/HogwartsTournament.sol:HogwartsTournament",
        "label": "isStunned",
        "offset": 0,
        "slot": "12",
        "type": "t_mapping(t_uint256,t_bool)"
      },
      {
        "astId": 3135,
        "contract": "contracts/HogwartsTournament.sol:HogwartsTournament",
        "label": "wizardNames",
        "offset": 0,
        "slot": "13",
        "type": "t_mapping(t_uint256,t_string_storage)"
      }
    ],
    "types": {
      "t_address": {
        "encoding": "inplace",
        "label": "address",
        "numberOfBytes": "20"
      },
      "t_bool": {
        "encoding": "inplace",
        "label": "bool",
        "numberOfBytes": "1"
      },
      "t_enum(HogwartsHouse)3113": {
        "encoding": "inplace",
        "label": "enum HogwartsTournament.HogwartsHouse",
        "numberOfBytes": "1"
      },
      "t_mapping(t_address,t_bool)": {
        "encoding": "mapping",
        "key": "t_address",
        "label": "mapping(address => bool)",
        "numberOfBytes": "32",
        "value": "t_bool"
      },
      "t_mapping(t_address,t_mapping(t_address,t_bool))": {
        "encoding": "mapping",
        "key": "t_address",
        "label": "mapping(address => mapping(address => bool))",
        "numberOfBytes": "32",
        "value": "t_mapping(t_address,t_bool)"
      },
      "t_mapping(t_address,t_uint256)": {
        "encoding": "mapping",
        "key": "t_address",
        "label": "mapping(address => uint256)",
        "numberOfBytes": "32",
        "value": "t_uint256"
      },
      "t_mapping(t_enum(HogwartsHouse)3113,t_uint256)": {
        "encoding": "mapping",
        "key": "t_enum(HogwartsHouse)3113",
        "label": "mapping(enum HogwartsTournament.HogwartsHouse => uint256)",
        "numberOfBytes": "32",
        "value": "t_uint256"
      },
      "t_mapping(t_uint256,t_address)": {
        "encoding": "mapping",
        "key": "t_uint256",
        "label": "mapping(uint256 => address)",
        "numberOfBytes": "32",
        "value": "t_address"
      },
      "t_mapping(t_uint256,t_bool)": {
        "encoding": "mapping",
        "key": "t_uint256",
        "label": "mapping(uint256 => bool)",
        "numberOfBytes": "32",
        "value": "t_bool"
      },
      "t_mapping(t_uint256,t_enum(HogwartsHouse)3113)": {
        "encoding": "mapping",
        "key": "t_uint256",
        "label": "mapping(uint256 => enum HogwartsTournament.HogwartsHouse)",
        "numberOfBytes": "32",
        "value": "t_enum(HogwartsHouse)3113"
      },
      "t_mapping(t_uint256,t_string_storage)": {
        "encoding": "mapping",
        "key": "t_uint256",
        "label": "mapping(uint256 => string)",
        "numberOfBytes": "32",
        "value": "t_string_storage"
      },
      "t_string_storage": {
        "encoding": "bytes",
        "label": "string",
        "numberOfBytes": "32"
      },
      "t_uint256": {
        "encoding": "inplace",
        "label": "uint256",
        "numberOfBytes": "32"
      }
    }
  }
}