{
  "address": "0xd3805b38cd50635e287e0a025af0142f9b7b8142",
  "abi": [
    {
      "type": "constructor",
      "inputs": [
        {
          "name": "_x",
          "type": "uint256",
          "baseType": "uint256",
          "components": null,
          "arrayLength": null,
          "arrayChildren": null
        }
      ],
      "outputs": []
    },
    {
      "type": "function",
      "name": "decrement",
      "stateMutability": "nonpayable",
      "inputs": [],
      "outputs": []
    },
    {
      "type": "function",
      "name": "increment",
      "stateMutability": "nonpayable",
      "inputs": [],
      "outputs": []
    },
    {
      "type": "function",
      "name": "x",
      "stateMutability": "view",
      "inputs": [],
      "outputs": [
        {
          "name": "",
          "type": "uint256",
          "baseType": "uint256",
          "components": null,
          "arrayLength": null,
          "arrayChildren": null
        }
      ]
    }
  ],
  "numDeployments": 10,
  "bytecode": "0x608060405234801561001057600080fd5b5060405161015f38038061015f83398101604081905261002f91610037565b600055610050565b60006020828403121561004957600080fd5b5051919050565b6101008061005f6000396000f3fe6080604052348015600f57600080fd5b5060043610603c5760003560e01c80630c55699c1460415780632baeceb714605b578063d09de08a146063575b600080fd5b604960005481565b60405190815260200160405180910390f35b60616069565b005b6061607d565b60008054908060768360a0565b9190505550565b60008054908060768360b4565b634e487b7160e01b600052601160045260246000fd5b60008160ac5760ac608a565b506000190190565b60006001820160c35760c3608a565b506001019056fea26469706673582212202c21f13b9f772a22b64e1e8ee8384286bcd05581350f7357643ca2dddcc1b8e464736f6c63430008140033",
  "deployedBytecode": "0x"
}